:100000000C9461000C94AE020C9487020C947E0058
:100010000C947E000C947E000C947E000C947E0068
:100020000C947E000C947E000C947E000C947E0058
:100030000C947E000C947E000C947E000C947E0048
:100040000C943D020C947E000C947E000C947E0077
:100050000C947E000C947E000C947E000C947E0028
:100060000C947E000C947E0000000000230026000B
:10007000290000000000240027002A0000000000E2
:10008000250028002B0004040404040404040202D4
:100090000202020203030303030301020408102007
:1000A0004080010204081020010204081020000012
:1000B0000008000201000003040700000000000027
:1000C000000011241FBECFEFD8E0DEBFCDBF11E08E
:1000D000A0E0B1E0E4E7F9E002C005900D92AA319A
:1000E000B107D9F721E0AAE1B1E001C01D92A9351D
:1000F000B207E1F70E94D5020C94B8040C940000FA
:10010000833081F028F4813099F08230A9F008958D
:100110008730A9F08830C9F08430B1F48091800034
:100120008F7D03C0809180008F7780938000089539
:1001300084B58F7784BD089584B58F7DFBCF809182
:10014000B0008F778093B00008958091B0008F7DCC
:10015000F9CF1F93CF93DF93282F30E0F901E255B9
:10016000FF4F8491F901E656FF4FD491F901EA5708
:10017000FF4FC491CC23A9F0162F81110E9480005B
:10018000EC2FF0E0EE0FFF1FE458FF4FA591B49164
:100190008FB7F894EC91111108C0D095DE23DC9351
:1001A0008FBFDF91CF911F910895DE2BF8CFCF93B2
:1001B000DF93D82FC62F809151019091520187343F
:1001C00091050CF06DC001969093520180935101FE
:1001D00080915101909152018634910581F461E042
:1001E0008D2F0E94A90060E082E10E94A90060E0DA
:1001F0008C2F0E94A90060E080E10E94A9008091FC
:100200005301909154018634910581F460E08D2F63
:100210000E94A90061E082E10E94A90060E08C2FA9
:100220000E94A90060E080E10E94A9008091550130
:10023000909156018634910581F460E08D2F0E94E3
:10024000A90060E082E10E94A90061E08C2F0E9479
:10025000A90060E080E10E94A9008091570190917F
:10026000580186349105C9F460E08D2F0E94A900E1
:1002700060E082E10E94A90060E08C2F0E94A9004A
:1002800061E080E10E94A90080910801909109013C
:1002900001969093090180930801DF91CF91089511
:1002A00080915301909154018734910534F4019663
:1002B00090935401809353018BCF8091550190917D
:1002C00056018734910534F401969093560180933A
:1002D00055017ECF80915701909158018734910547
:1002E0008CF0109252011092510110925401109210
:1002F000530110925601109255011092580110921C
:10030000570166CF0196909358018093570160CFB3
:10031000CF93DF9390E0FC01E656FF4F24918A577C
:100320009F4FFC0184918823D1F090E0880F991FA2
:10033000FC01EE58FF4FA591B491FC01E458FF4F2A
:10034000C591D49161110EC09FB7F8948C91E22FA2
:10035000E0958E238C932881E223E8839FBFDF9171
:10036000CF9108958FB7F894EC91E22BEC938FBF67
:10037000F6CF8E50806480937C0080917A008064F8
:1003800080937A0080917A0086FDFCCF809178007E
:100390009091790008950895DF92EF92FF920F9364
:1003A0001F93CF93DF930AE111E0D0E0C0E0DD249A
:1003B000D394FE01E255FF4F8491FE01E656FF4FB4
:1003C000E490FE01EA57FF4FF490FF2031F18111D4
:1003D0000E948000EF2DF0E0EE0FFF1FE859FF4F65
:1003E000A591B491EC91EE22C1F0F8018081918148
:1003F000A281B3812FB7892B8A2B8B2BE9F4F89438
:1004000080913F0190914001A0914101B091420142
:100410002FBF80839183A283B38321960C5F1F4FEC
:10042000C830D10509F0C5CFDF91CF911F910F9151
:10043000FF90EF90DF900895F89480913F019091A4
:100440004001A0914101B09142012FBF40815181F3
:1004500062817381841B950BA60BB70B883C9105B9
:10046000A105B105D0F2FE01E95BFE4FD082F80193
:100470001082118212821382D0CF1F920F920FB678
:100480000F9211242F933F938F939F93AF93BF931A
:1004900080913F0190914001A0914101B0914201B2
:1004A00030913E0123E0230F2D3758F50196A11D11
:1004B000B11D20933E0180933F0190934001A09392
:1004C0004101B093420180913A0190913B01A0918A
:1004D0003C01B0913D010196A11DB11D80933A01EF
:1004E00090933B01A0933C01B0933D01BF91AF912C
:1004F0009F918F913F912F910F900FBE0F901F9062
:10050000189526E8230F0296A11DB11DD2CF1F9288
:100510000F920FB60F9211242F933F934F935F9337
:100520006F937F938F939F93AF93BF93EF93FF93BB
:10053000E0910201F09103010995FF91EF91BF91C4
:10054000AF919F918F917F916F915F914F913F916B
:100550002F910F900FBE0F901F9018951F920F9222
:100560000FB60F9211242F933F934F935F936F9386
:100570007F938F939F93AF93BF93EF93FF93E091FC
:100580000001F09101010995FF91EF91BF91AF91A9
:100590009F918F917F916F915F914F913F912F919B
:1005A0000F900FBE0F901F901895789484B58260BD
:1005B00084BD84B5816084BD85B5826085BD85B507
:1005C000816085BD80916E00816080936E00109285
:1005D0008100809181008260809381008091810000
:1005E0008160809381008091800081608093800091
:1005F0008091B10084608093B1008091B0008160EF
:100600008093B00080917A00846080937A0080911A
:100610007A00826080937A0080917A008160809372
:100620007A0080917A00806880937A001092C100ED
:10063000C0E060E08C2F0E948801CF5FC830C9F70E
:10064000C9E061E08C2F0E948801CF5FCD30C9F7EF
:1006500061E083E10E94880161E082E10E948801FB
:1006600061E081E10E94880161E080E10E948801EF
:100670008CEC91E0909301018093000180916900DE
:10068000836080936900E89AC2E0D0E049E0E42EFC
:10069000F12C7724739400E010E0CC24C394D12C87
:1006A000AA24AA94BA2C6624639480904F01909057
:1006B0005001C401BE010E949004682F8BE00E948B
:1006C000A900C40197FC019695958795BE010E94EB
:1006D0009004682F8AE00E94A90097FE03C023E0DF
:1006E000820E911CC4019595879595958795BE01BD
:1006F0000E949004682F89E00E94A9008091040163
:10070000882309F480C02FB7F89480913F0190911D
:100710004001A0914101B09142012FBF409143019E
:10072000509144016091450170914601841B950BE5
:10073000A60BB70B893E9340A105B10508F463C031
:100740008091080190910901B7010E949004892BC2
:1007500009F048C0209107011092520110925101F6
:1007600010925401109253011092560110925501AB
:100770001092580110925701D0920901C0920801BD
:1007800080914F0190915001222309F476C0019687
:100790009093500180934F0180914F0190915001AF
:1007A000209105013091060182179307D9F4895BE6
:1007B0009E4FFC011082B0920601A09205012FB756
:1007C000F89480913F0190914001A0914101B09136
:1007D00042012FBF8093430190934401A0934501B0
:1007E000B09346018091050190910601019659F060
:1007F00080910701882309F442C063E170E081E140
:1008000090E00E94D7008FE00E94B9018D3C924099
:10081000DCF1109204016091040167258CE00E94D4
:10082000A9008EE00E94B901EAE0F1E030E020E0AA
:10083000419151918417950721F4D901A95BBE4FCD
:100840007C922F5F3F4F2830310591F70E94CC01F9
:1008500020914F013091500180910701811117C003
:10086000E7E4F1E090E080E0821793070CF04EC0DF
:10087000419141112EC00196F7CF019789CF61E1D7
:1008800070E083E190E0BDCF60920401C4CFC90164
:100890000196883091054CF4FC01E95BFE4F4081E4
:1008A0004423B1F38F3F9807A1F480910501909103
:1008B00006018F3F980789F5E7E4F1E050E040E05A
:1008C0004217530734F46191662371F010920701C7
:1008D000CA0190930601809305010115110509F4E1
:1008E000E4CE0E940000E1CE4F5F5F4FE9CF2F5F63
:1008F0003F4F283031056CF7F901E95BFE4F40812D
:100900004423A9F360920701C901E3CF8091050157
:10091000909106018F3F980751F38FEF9FEFD9CF4A
:1009200097FB072E16F4009407D077FD09D00E949C
:10093000A40407FC05D03EF4909581959F4F08953F
:10094000709561957F4F0895AA1BBB1B51E107C0AD
:10095000AA1FBB1FA617B70710F0A61BB70B881F4F
:10096000991F5A95A9F780959095BC01CD010895DE
:04097000F894FFCF29
:10097400CB01CB0101FFFF010100CF027E038F03F6
:0A098400A103360345035403F902F2
:00000001FF
