:100000000C9461000C9473000C9473000C947300B6
:100010000C9473000C9473000C9473000C94730094
:100020000C9473000C9473000C9473000C94730084
:100030000C9473000C9473000C9473000C94730074
:100040000C9426010C9473000C9473000C947300B0
:100050000C9473000C9473000C9473000C94730054
:100060000C9473000C94730000000000240027001F
:100070002A0000000000250028002B0000000000DE
:1000800023002600290004040404040404040202DA
:100090000202020203030303030301020408102007
:1000A0004080010204081020010204081020000012
:1000B0000008000201000003040700000000000027
:1000C000000011241FBECFEFD8E0DEBFCDBF21E07E
:1000D000A0E0B1E001C01D92A131B207E1F70E949A
:1000E00070010C9492030C940000833081F028F48A
:1000F000813099F08230A9F008958730A9F08830D6
:10010000C9F08430B1F4809180008F7D03C080916C
:1001100080008F7780938000089584B58F7784BDA9
:10012000089584B58F7DFBCF8091B0008F77809349
:10013000B00008958091B0008F7DF9CFCF93DF9309
:10014000282F30E0F901E255FF4F8491F901E6567E
:10015000FF4FD491F901EA57FF4FC491CC23A1F08E
:1001600081110E947500EC2FF0E0EE0FFF1FE458A4
:10017000FF4FA591B491EC91ED2381E090E009F45B
:1001800080E0DF91CF91089580E090E0FACF1F9357
:10019000CF93DF93282F30E0F901E255FF4F849190
:1001A000F901E656FF4FD491F901EA57FF4FC49188
:1001B000CC23A9F0162F81110E947500EC2FF0E0DE
:1001C000EE0FFF1FEE58FF4FA591B4918FB7F89433
:1001D000EC91111108C0D095DE23DC938FBFDF9125
:1001E000CF911F910895DE2BF8CFCF93DF9390E04E
:1001F000FC01E656FF4F24918A579F4FFC018491E2
:100200008823D1F090E0880F991FFC01E859FF4F37
:10021000A591B491FC01EE58FF4FC591D4916111A5
:100220000EC09FB7F8948C91E22FE0958E238C93AB
:100230002881E223E8839FBFDF91CF9108958FB794
:10024000F894EC91E22BEC938FBFF6CF1F920F92B4
:100250000FB60F9211242F933F938F939F93AF93D9
:10026000BF9380910D0190910E01A0910F01B0916B
:10027000100130910C0123E0230F2D3758F5019622
:10028000A11DB11D20930C0180930D0190930E01CF
:10029000A0930F01B0931001809108019091090182
:1002A000A0910A01B0910B010196A11DB11D80938F
:1002B000080190930901A0930A01B0930B01BF912B
:1002C000AF919F918F913F912F910F900FBE0F9003
:1002D0001F90189526E8230F0296A11DB11DD2CFBD
:1002E000CF93DF93CDB7DEB764970FB6F894DEBF38
:1002F0000FBECDBF789484B5826084BD84B5816023
:1003000084BD85B5826085BD85B5816085BD8091E0
:100310006E00816080936E00109281008091810058
:100320008260809381008091810081608093810050
:10033000809180008160809380008091B100846012
:100340008093B1008091B00081608093B000809173
:100350007A00846080937A0080917A008260809332
:100360007A0080917A00816080937A0080917A008F
:10037000806880937A001092C10060E088E00E945B
:10038000F50060E087E00E94F50060E082E00E94F6
:10039000F50060E084E00E94F50061E08DE00E94DD
:1003A000F50061E08CE00E94F50061E08BE00E94C6
:1003B000F50061E08AE00E94F50061E089E00E94BA
:1003C000F50061E086E00E94F50061E085E00E94B2
:1003D000F50082E00E949E008C01909307018093BB
:1003E000060184E00E949E007C01909305018093A9
:1003F000040187E00E949E005C01909303018093BA
:10040000020188E00E949E002C01909301018093DC
:1004100000019501280F391F3C832B832E0D3F1DB2
:100420003C872B8741E050E05C8B4B8B011511051D
:1004300011F01C8A1B8A8B859C852B893C89820F35
:10044000931F9E838D8341E050E05A834983A1141A
:10045000B10411F01A82198289809A80840C951C4B
:1004600022242394312C4114510411F0312C212CDD
:10047000CC24C394D12CE114F10411F0D12CC12C63
:1004800089819A81820D931D98878F833C016E0C20
:100490007F1CC801880D991D8E0D9F1D4D815E81A9
:1004A000849F9001859F300D949F300D1124C101D0
:1004B0008C0D9D1D4B895C89840F951F8A0D9B1D9A
:1004C000289FA001299F500D389F500D11242B8982
:1004D0003C89260D371D429FC001439F900D529FBE
:1004E000900D112461E0892B09F460E08DE00E94F9
:1004F000C700C701880D991D9A87898794012C0D23
:100500003D1D3E872D87A20CB31CA6014A0D5B1D25
:10051000588B4F87600E711E8F8098848C0C9D1CA9
:100520009C018B899C89280F391F8D859E85800FA2
:10053000911F289FA001299F500D389F500D112415
:100540002F8538898B899C89280F391F429FC001CC
:10055000439F900D529F900D1124869D9001879D81
:10056000300D969D300D1124289DC001299D900DC0
:10057000389D900D112461E0892B09F460E08CE036
:100580000E94C7002B813C812C0D3D1D3A8B298B8D
:10059000C901800F911F869D9001879D300D969D0A
:1005A000300D1124289DC001299D900D389D900D7E
:1005B000112461E0892B09F460E08BE00E94C70000
:1005C000C40CD51C4B895C89C40ED51E89819A81C7
:1005D000C80ED91E29853A85200F311F4D815E81B5
:1005E000249FC001259F900D349F900D1124C89E1B
:1005F000A001C99E500DD89E500D11248F85988959
:10060000800F911F489F9001499F300D589F300DDA
:1006100011248B899C89880E991E289DC001299DD3
:10062000900D389D900D112461E0892B09F460E054
:100630008AE00E94C7008D849E842B893C89820EAB
:10064000931E8B819C81820F931F29853A85829FFF
:10065000A001839F500D929F500D1124489D900141
:10066000499D300D589D300D1124AE0CBF1C4B8997
:100670005C89A40EB51E2A9DC0012B9D900D3A9D4C
:10068000900D112461E0892B09F460E089E00E945B
:10069000C7002D813E8149895A89249FC001259F29
:1006A000900D349F900D1124889D9001899D300DEF
:1006B000989D300D11248B899C894F815885840F1A
:1006C000951F8E0D9F1DAC01249FC001259F900D8D
:1006D000349F900D112461E0892B09F460E086E0DD
:1006E0000E94C700020D131D89819A81080F191FEE
:1006F000E00EF11E2B853C85E29EC001E39E900D2D
:10070000F29E900D112461E0892B09F460E085E0F0
:100710000E94C70040E050E0452B09F45ACE0E94E9
:08072000000057CEF894FFCF52
:00000001FF
