:100000000C9461000C94DA020C94B3020C947E0000
:100010000C947E000C947E000C947E000C947E0068
:100020000C947E000C947E000C947E000C947E0058
:100030000C947E000C947E000C947E000C947E0048
:100040000C9469020C947E000C947E000C947E004B
:100050000C947E000C947E000C947E000C947E0028
:100060000C947E000C947E00000000002400270009
:100070002A0000000000250028002B0000000000DE
:1000800023002600290004040404040404040202DA
:100090000202020203030303030301020408102007
:1000A0004080010204081020010204081020000012
:1000B0000008000201000003040700000000000027
:1000C000000011241FBECFEFD8E0DEBFCDBF11E08E
:1000D000A0E0B1E0E6EDFBE002C005900D92A83093
:1000E000B107D9F721E0A8E0B1E001C01D92A1322B
:1000F000B207E1F70E9401030C94E9050C9400009B
:10010000833081F028F4813099F08230A9F008958D
:100110008730A9F08830C9F08430B1F48091800034
:100120008F7D03C0809180008F7780938000089539
:1001300084B58F7784BD089584B58F7DFBCF809182
:10014000B0008F778093B00008958091B0008F7DCC
:10015000F9CFCF93DF93282F30E0F901E255FF4F1D
:100160008491F901E656FF4FD491F901EA57FF4F08
:10017000C491CC23A1F081110E948000EC2FF0E00B
:10018000EE0FFF1FE458FF4FA591B491EC91ED23C2
:1001900081E090E009F480E0DF91CF91089580E064
:1001A00090E0FACF1F93CF93DF93282F30E0F9012F
:1001B000E255FF4F8491F901E656FF4FD491F901C2
:1001C000EA57FF4FC491CC23A9F0162F81110E944A
:1001D0008000EC2FF0E0EE0FFF1FEE58FF4FA591CF
:1001E000B4918FB7F894EC91111108C0D095DE232B
:1001F000DC938FBFDF91CF911F910895DE2BF8CF55
:10020000CF93DF9390E0FC01E656FF4F24918A578D
:100210009F4FFC0184918823D1F090E0880F991FB3
:10022000FC01E859FF4FA591B491FC01EE58FF4F36
:10023000C591D49161110EC09FB7F8948C91E22FB3
:10024000E0958E238C932881E223E8839FBFDF9182
:10025000CF9108958FB7F894EC91E22BEC938FBF78
:10026000F6CF3FB7F89480910D0190910E01A091C7
:100270000F01B091100126B5A89B05C02F3F19F0C2
:100280000196A11DB11D3FBFBA2FA92F982F882716
:10029000BC01CD01620F711D811D911D42E0660FF1
:1002A000771F881F991F4A95D1F708952FB7F894A3
:1002B0006091090170910A0180910B0190910C01EC
:1002C0002FBF089581E0809304010E94560160933E
:1002D00016017093170180931801909319010E94E1
:1002E000560160931C0170931D0180931E01909331
:1002F0001F01089508950F931F93CF93DF93082F45
:10030000162FD42FC22F60E00E94D20060E0812F10
:100310000E94D20061E08D2F0E94D20060E08C2FFD
:100320000E94D20060E0802F0E94D20061E0812F05
:100330000E94D20060E08D2F0E94D20060E08C2FDE
:100340000E94D20061E0802F0E94D20060E0812FE5
:100350000E94D20060E08D2F0E94D20060E08C2FBE
:100360000E94D20060E0802F0E94D20060E0812FC6
:100370000E94D20060E08D2F0E94D20061E08C2F9D
:10038000DF91CF911F910F910C94D2000F931F9387
:10039000CF93DF93082F162FD42FC22F61E00E9436
:1003A000D20060E0812F0E94D20060E08D2F0E9479
:1003B000D20060E08C2F0E94D20060E0802F0E946B
:1003C000D20061E0812F0E94D20060E08D2F0E9458
:1003D000D20060E08C2F0E94D20060E0802F0E944B
:1003E000D20060E0812F0E94D20061E08D2F0E9438
:1003F000D20060E08C2F0E94D20060E0802F0E942B
:10040000D20060E0812F0E94D20060E08D2F0E9418
:10041000D20061E08C2FDF91CF911F910F910C944E
:10042000D200CF92DF92EF92FF921F93CF93DF9390
:10043000182FD0E0C0E02197812F0E94A900892BBE
:10044000D1F30E9431016B017C01219751F1812F81
:100450000E94A900892BC9F70E9431016C197D09FE
:100460008E099F090E94A20420E030E040E05FE393
:100470000E94030524E037EE4CE05DE30E94030593
:1004800020E030E040E752E40E949D04881F882766
:10049000881FDF91CF911F91FF90EF90DF90CF9059
:1004A000089560E070E0CB01DFCF60E086E00E945D
:1004B000D20083E090E00197F1F761E086E00E94CE
:1004C000D20083E290E00197F1F760E086E00C94BF
:1004D000D2001F920F920FB60F9211242F933F93C9
:1004E0008F939F93AF93BF938091090190910A01DD
:1004F000A0910B01B0910C013091080123E0230F72
:100500002D3758F50196A11DB11D20930801809348
:10051000090190930A01A0930B01B0930C01809103
:100520000D0190910E01A0910F01B0911001019663
:10053000A11DB11D80930D0190930E01A0930F0199
:10054000B0931001BF91AF919F918F913F912F91E7
:100550000F900FBE0F901F90189526E8230F02965C
:10056000A11DB11DD2CF1F920F920FB60F92112471
:100570002F933F934F935F936F937F938F939F93AB
:10058000AF93BF93EF93FF93E0910201F0910301CA
:100590000995FF91EF91BF91AF919F918F917F91BD
:1005A0006F915F914F913F912F910F900FBE0F90E0
:1005B0001F9018951F920F920FB60F9211242F9330
:1005C0003F934F935F936F937F938F939F93AF93DB
:1005D000BF93EF93FF93E0910001F0910101099522
:1005E000FF91EF91BF91AF919F918F917F916F910B
:1005F0005F914F913F912F910F900FBE0F901F90E1
:100600001895789484B5826084BD84B5816084BD7A
:1006100085B5826085BD85B5816085BD80916E00A0
:10062000816080936E0010928100809181008260D1
:10063000809381008091810081608093810080910E
:1006400080008160809380008091B10084608093FD
:10065000B1008091B00081608093B00080917A00F9
:10066000846080937A0080917A00826080937A001F
:1006700080917A00816080937A0080917A0080680E
:1006800080937A001092C10061E08EE00E94000128
:1006900061E08FE00E94000161E080E10E940001C2
:1006A00061E081E10E940001C5E0D0E060E082E00D
:1006B0000E9400012197D1F7C6E061E08C2F0E94D3
:1006C0000001CF5FCE30C9F782E691E0909301013F
:1006D0008093000180916900836080936900E89AAB
:1006E00084E6E82EF12C00E010E0CC24C394D12C59
:1006F0000E9456014B015C0181E00E94A900892BF8
:1007000031F18091120190911301A0911401B091E7
:100710001501881A990AAA0ABB0A88EE881683E08E
:100720009806A104B10498F06091110181E0682756
:10073000609311018DE00E94D2000E9456016093E7
:10074000120170931301809314019093150180910D
:100750000401882379F10E9456014B015C0181E07C
:100760000E94A900892B31F1809116019091170107
:10077000A0911801B0911901881A990AAA0ABB0A16
:1007800084EF881681E09806A104B10498F082E015
:100790000E94A900892B09F497C00E94560160931A
:1007A0001C0170931D0180931E0190931F0181E035
:1007B000809320010E9456014B015C018091200131
:1007C000882309F484C081E00E94A900892B09F4E0
:1007D0007EC080911C0190911D01A0911E01B091DD
:1007E0001F01881A990AAA0ABB0A85EF881681E0B8
:1007F0009806A104B10408F06AC0C0911A01D09112
:100800001B01CE01B7010E94C105892B51F42BE0D9
:1008100030E04CE050E06BE070E08CE090E00E9453
:10082000C6012196D0931B01C0931A01809120012B
:10083000811143C081E00E94A900892BF1F00E9440
:10084000550283E090E00E941102882309F44EC013
:100850000E94550284E090E00E941102882309F46E
:1008600040C00E94550290E080E00E94110288235F
:1008700089F1109206011092050181E00E94A90001
:10088000892BD9F080910501909106018B3091055B
:1008900081F527E030E04FE050E068E070E08EE066
:1008A00090E00E94C6012AE030E041E150E069E0BA
:1008B00070E080E190E00E94C6010115110509F485
:1008C00017CF0E94000014CF1092040173CF109232
:1008D0002001ACCF8AE090E090930601809305015F
:1008E000CCCFD0920601C0920501C7CF8BE090E03B
:1008F000F3CF8130910549F427E030E04FE050E03C
:1009000068E070E08EE090E0D6CF0A9759F42AE0D4
:1009100030E041E150E069E070E080E190E00E9469
:100920007B01CBCF27E030E04FE050E068E070E0A3
:100930008EE090E00E947B01EACF0E94DF0408F481
:1009400081E00895E89409C097FB3EF49095809566
:10095000709561957F4F8F4F9F4F9923A9F0F92F85
:1009600096E9BB279395F695879577956795B79503
:10097000F111F8CFFAF4BB0F11F460FF1BC06F5FE9
:100980007F4F8F4F9F4F16C0882311F096E911C0FB
:10099000772321F09EE8872F762F05C0662371F01C
:1009A00096E8862F70E060E02AF09A95660F771F30
:1009B000881FDAF7880F9695879597F90895990F0C
:1009C0000008550FAA0BE0E8FEEF16161706E80719
:1009D000F907C0F012161306E407F50798F0621B3A
:1009E000730B840B950B39F40A2661F0232B242B0F
:1009F000252B21F408950A2609F4A140A6958FEF2E
:100A0000811D811D08950E9416050C9487050E9482
:100A1000790538F00E94800520F0952311F00C94A0
:100A200070050C94760511240C94BB050E94980562
:100A300070F3959FC1F3950F50E0551F629FF00131
:100A4000729FBB27F00DB11D639FAA27F00DB11D4A
:100A5000AA1F649F6627B00DA11D661F829F2227D3
:100A6000B00DA11D621F739FB00DA11D621F839F5A
:100A7000A00D611D221F749F3327A00D611D231F30
:100A8000849F600D211D822F762F6A2F11249F577E
:100A900050409AF0F1F088234AF0EE0FFF1FBB1F81
:100AA000661F771F881F91505040A9F79E3F510540
:100AB00080F00C9470050C94BB055F3FE4F3983E06
:100AC000D4F3869577956795B795F795E7959F5FEA
:100AD000C1F7FE2B880F911D9695879597F908957C
:100AE00097F99F6780E870E060E008959FEF80ECE1
:100AF000089500240A941616170618060906089584
:100B000000240A9412161306140605060895092EE9
:100B10000394000C11F4882352F0BB0F40F4BF2B58
:100B200011F460FF04C06F5F7F4F8F4F9F4F089598
:100B300057FD9058440F551F59F05F3F71F047958E
:100B4000880F97FB991F61F09F3F79F08795089573
:100B5000121613061406551FF2CF4695F1DF08C092
:100B6000161617061806991FF1CF869571056105AF
:100B700008940895E894BB2766277727CB0197F957
:100B8000089597FB072E16F4009407D077FD09D03F
:100B90000E94D50507FC05D03EF4909581959F4FA6
:100BA0000895709561957F4F0895AA1BBB1B51E175
:100BB00007C0AA1FBB1FA617B70710F0A61BB70BCD
:100BC000881F991F5A95A9F780959095BC01CD0172
:060BD0000895F894FFCF28
:080BD6007A017A01010B000015
:00000001FF
